:020000040800F2
:100000000000012091040008D9040008D904000868
:10001000D9040008D9040008D90400080000000031
:10002000000000000000000000000000D9040008EB
:10003000D904000800000000D90400085104000899
:10004000D9040008D9040008D9040008D90400081C
:10005000D9040008D9040008D9040008D90400080C
:10006000D9040008D9040008D9040008D9040008FC
:10007000D9040008D9040008D9040008D9040008EC
:10008000D9040008D9040008D9040008D9040008DC
:10009000D9040008D9040008D9040008D9040008CC
:1000A000D9040008D9040008D9040008D9040008BC
:1000B000D9040008D9040008D9040008D9040008AC
:1000C000D9040008D9040008D9040008D90400089C
:1000D000D9040008D9040008D9040008D90400088C
:1000E000D9040008D9040008D9040008D90400087C
:1000F000D9040008D9040008D9040008D90400086C
:10010000D90400080000000000000000D904000825
:10011000D9040008D9040008D9040008D90400084B
:10012000D9040008D9040008D9040008D90400083B
:10013000D9040008D90400080000000000000000F5
:10014000D9040008D9040008D90400080000000000
:10015000000000000000000000000000000000009F
:10016000D9040008D9040008D9040008D9040008FB
:10017000D9040008D9040008D9040008D9040008EB
:10018000D9040008D90400080000000000000000A5
:04019000D904000886
:1001940080B483B000AF03463960FB7197F9073030
:1001A400002B0BDA3B68DAB20C49FB7903F00F033E
:1001B400043B1201D2B20B441A7609E03B68DAB26E
:1001C400074997F907301201D2B20B4483F8002390
:1001D40000BF0C37BD465DF8047B704700ED00E0BE
:1001E40000E100E080B582B000AF78607B68013B3D
:1001F400B3F1807F01D301230FE00A4A7B68013BFE
:1002040053600F214FF0FF30FFF7C2FF054B002270
:100214009A60044B07221A60002318460837BD462B
:1002240080BD00BF10E000E080B584B000AF78600E
:100234007B681B68FB60094B5B69084A83F0080311
:100244005361FB68FA2202FB03F3054AA2FB032372
:100254009B09184600F0A6FDEDE700BF0004004826
:10026400D34D621080B582B002AF0E4B00221A60EB
:1002740000F020F80023019304230093002380223C
:1002840009490A4800F06EFC0023019304230093FB
:10029400002380220649054800F064FC00F0A6FD16
:1002A400FEE700BF04810020881300082D02000827
:1002B4009413000880B500AF5E4B1B685D4A23F0C1
:1002C4001F0313605B4B1B685A4A43F0140313600B
:1002D400594B5B68584A23F476135360564B5B685A
:1002E400554A43F4E4135360534B1B68524A43F09A
:1002F4008073136000E000BF4F4B1B6803F0007372
:10030400002BF8D04C4B5B684B4A23F0030353603B
:10031400494B5B68484A43F00203536000E000BF66
:10032400454B5B6803F00803002BF8D0434B444A69
:100334001A60424B1B68434A13603F4B5B693E4A59
:1003440043F4003353614FF090431B684FF09042E5
:1003540023F4406313604FF090431B684FF09042C6
:1003640043F4806313604FF090435B684FF0904216
:1003740023F0200353604FF090439B684FF090426A
:1003840023F4406393604FF09043DB684FF0904256
:1003940023F44063D360284B5B69274A43F48023EA
:1003A4005361294B1B68284A23F0C0031360264B72
:1003B4001B68254A43F040031360234B5B68224AC1
:1003C40023F008035360204B9B681F4A23F0C003AB
:1003D40093601D4BDB681C4A23F0C003D360164BAB
:1003E4005B69154A43F480235361174B1B68164A13
:1003F40023F440631360144B1B68134A43F4806373
:100404001360114B5B68104A23F0200353600E4BBA
:100414009B680D4A23F4406393600B4BDB680A4AE4
:1004240023F44063D3604FF47A70FFF7DBFE00BF20
:1004340080BD00BF0020024000100240088100205F
:1004440000A24A04008100200004004880B400AFE8
:100454000C4B1B6801330B4A13600A4B1B680A4A96
:1004640093420AD14FF090435B694FF0904283F07E
:1004740020035361034B00221A6000BFBD465DF8A0
:10048400047B704704810020A0860100DFF82CD093
:10049400002103E00A4B5B584350043109480A4BDE
:1004A40042189A42F6D3094A02E0002342F8043B78
:1004B400074B9A42F9D3FFF7D5FEFEE7000001206F
:1004C400A8130008000000200800002008000020F5
:1004D4000C810020FEE7000080B586B000AF786094
:1004E4000023FB6000F0BEFC4C4B1B68002B01D1C9
:1004F40000F0E0F84A4B1A687B681340002B40F088
:1005040086807B68002B1ED008227B6813447A689F
:100514009A4218D208227B6813447B607B6803F0FC
:100524000703002B11D07B6823F0070308337A6894
:100534009A4205D27B6823F0070308337B6004E00A
:1005440000237B6001E000237B607B68002B5ED08E
:10055400344B1B687A689A4259D8334B3B61324B0F
:100564001B687B6104E07B693B617B691B687B6181
:100574007B695B687A689A4203D97B691B68002BA4
:10058400F1D1264B1B687A699A4240D03B691B68BB
:1005940008221344FB607B691A683B691A607B6913
:1005A4005A687B68D21A08235B009A420FD97A6989
:1005B4007B681344BB607B695A687B68D21ABB684A
:1005C4005A607B697A685A60B86800F0D5F8154BB0
:1005D4001A687B695B68D31A124A1360114B1A6854
:1005E400124B1B689A4203D20E4B1B680F4A1360CE
:1005F4007B695A680A4B1B681A437B695A607B699A
:1006040000221A600A4B1B680133094A136000F088
:1006140037FCFB6818461837BD4680BD10800020A3
:1006240024800020148000200880002018800020EE
:100634001C80002080B584B000AF78607B68FB60CC
:100644007B68002B2CD008235B42FA681344FB60C0
:10065400FB68BB60BB685A68134B1B681340002BD4
:100664001ED0BB681B68002B1AD1BB685A680E4B9E
:100674001B68DB431A40BB685A6000F0F3FBBB689D
:100684005A680A4B1B681344084A1360B86800F0A0
:1006940073F8074B1B680133054A136000F0F0FB45
:1006A40000BF1037BD4680BD248000201480002088
:1006B4002080002080B485B000AF4FF40043BB60BD
:1006C400274BFB60FB6803F00703002B0CD0FB688F
:1006D4000733FB60FB6823F00703FB60BA68FB6821
:1006E400D31A1F4A1344BB60FB687B601D4A7B68B6
:1006F40013601C4B00225A607B68BA681344FB6089
:100704000822FB689B1AFB60FB6823F00703FB606D
:10071400FB68154A1360144B1B6800225A60124B85
:100724001B6800221A607B683B603B68FA68D21A37
:100734003B685A600C4B1A683B681A603B685B68FC
:100744000A4A13603B685B68094A1360094B4FF01F
:1007540000421A6000BF1437BD465DF8047B704741
:10076400080000200880002010800020188000204D
:10077400148000202480002080B485B000AF78600D
:10078400284BFB6002E0FB681B68FB60FB681B688E
:100794007A689A42F7D8FB68BB60FB685B68BA6802
:1007A40013447A689A4208D1FB685A687B685B688C
:1007B4001A44FB685A60FB687B607B68BB607B689B
:1007C4005B68BA681A44FB681B689A4218D1FB68D4
:1007D4001A68154B1B689A420DD07B685A68FB68EF
:1007E4001B685B681A447B685A60FB681B681A685C
:1007F4007B681A6008E00C4B1A687B681A6003E097
:10080400FB681A687B681A60FA687B689A4202D0AF
:10081400FB687A681A6000BF1437BD465DF8047B34
:10082400704700BF088000201080002080B485B08D
:1008340000AFF860B9607A60FB68043BFB60FB685A
:100844004FF080721A60FB68043BFB60BB6823F0C6
:100854000102FB681A60FB68043BFB600C4AFB68FE
:100864001A60FB68143BFB607A68FB681A60FB68DB
:10087400043BFB60FB686FF002021A60FB68203BDC
:10088400FB60FB6818461437BD465DF8047B70476F
:100894009908000880B483B000AF00233B604FF098
:1008A400500383F31188BFF36F8FBFF34F8F7B60C7
:1008B40000BF00BF3B68002BFCD000BF00BF0C375B
:1008C400BD465DF8047B704708480068006880F303
:1008D40008884FF0000080F3148862B661B6BFF355
:1008E4004F8FBFF36F8F00DF00BF000008ED00E003
:1008F40000BF00BF80B500AF104B1B680F4A43F424
:10090400700313600D4B1B680C4A43F07043136073
:1009140000F04EF80A4B00221A6000F063F8094B0D
:100924001B68084A43F040431360FFF7CDFF00F013
:10093400CFFBFFF7AFFF0023184680BD20ED00E09A
:100944000000002034EF00E080B483B000AF4FF02B
:10095400500383F31188BFF36F8FBFF34F8F7B6016
:1009640000BF054B1B680133034A136000BF0C37FB
:10097400BD465DF8047B70470000002080B483B05E
:1009840000AF0A4B1B68013B084A1360074B1B6806
:10099400002B05D100237B607B6883F3118800BFA3
:1009A40000BF0C37BD465DF8047B70470000002093
:1009B40080B400AF084B00221A60084B00221A6072
:1009C400074B48F69F421A60034B03221A6000BF8C
:1009D400BD465DF8047B704710E000E018E000E0DD
:1009E40014E000E0DFF80C00016841F470010160DC
:1009F4007047000088ED00E000BF00BF80B483B002
:100A040000AF78607B6803F108027B685A607B68FA
:100A14004FF0FF329A607B6803F108027B68DA606A
:100A24007B6803F108027B681A617B6800221A6004
:100A340000BF0C37BD465DF8047B704780B483B0BB
:100A440000AF78607B6800221A6100BF0C37BD4696
:100A54005DF8047B704780B485B000AF786039607E
:100A64007B685B68FB603B68FA685A60FB689A685D
:100A74003B689A60FB689B683A685A60FB683A680E
:100A84009A603B687A681A617B681B685A1C7B68A9
:100A94001A6000BF1437BD465DF8047B704780B40C
:100AA40085B000AF786039603B681B68BB60BB6889
:100AB400B3F1FF3F03D17B681B69FB600CE07B68EB
:100AC4000833FB6002E0FB685B68FB60FB685B6803
:100AD4001B68BA689A42F6D2FB685A683B685A6047
:100AE4003B685B683A689A603B68FA689A60FB689E
:100AF4003A685A603B687A681A617B681B685A1CBA
:100B04007B681A6000BF1437BD465DF8047B7047EC
:100B140080B485B000AF78607B681B69FB607B683C
:100B24005B687A6892689A607B689B687A685268A6
:100B34005A60FB685B687A689A4203D17B689A685A
:100B4400FB685A607B6800221A61FB681B685A1EA6
:100B5400FB681A60FB681B6818461437BD465DF8CD
:100B6400047B704780B58CB004AFF860B9603B601B
:100B74001346FB80FB889B001846FFF7ADFC7861A9
:100B84007B69002B0ED05820FFF7A6FCF861FB69A7
:100B9400002B03D0FB697A691A6305E07869FFF7D3
:100BA40049FD01E00023FB61FB69002B13D0FA88A7
:100BB40000230393FB690293FB6A0193BB6A0093CE
:100BC4003B68B968F86800F00EF8F86900F07EF840
:100BD4000123BB6102E04FF0FF33BB61BB691846E0
:100BE4002037BD4680BD80B586B000AFF860B960DF
:100BF4007A603B60BB6A1A6B7B6803F18043013BFC
:100C04009B0013443B613B6923F007033B61BB68D2
:100C1400002B21D000237B6114E0BA687B69134464
:100C240093F90010BA6A7B69134434330A461A7084
:100C3400BA687B69134493F90030002B06D07B69B2
:100C440001337B617B690F2BE7D900E000BFBB6AEE
:100C5400002283F8432003E0BB6A002283F8342097
:100C64003B6A042B01D904233B62BB6A3A6ADA6209
:100C7400BB6A04331846FFF7E1FEBB6A1833184613
:100C8400FFF7DCFEBB6ABA6A1A613B6AC3F105026C
:100C9400BB6A9A61BB6ABA6A5A62BB6A4433142259
:100CA4000021184600F01AFB3A68F9683869FFF722
:100CB400BDFD0246BB6A1A607B6A002B02D07B6AC8
:100CC400BA6A1A6000BF1837BD4680BD80B582B0CD
:100CD40000AF7860FFF738FE2B4B1B6801332A4ABC
:100CE40013602A4B1B68002B09D1284A7B681360C8
:100CF400254B1B68012B10D100F052FA0DE0244B58
:100D04001B68002B09D1214B1B68DA6A7B68DB6AFC
:100D14009A4202D81D4A7B6813601E4B1B6801333C
:100D24001C4A13607B68DA6A1B4B1B689A4203D91E
:100D34007B68DB6A184A13607B68DA6A13469B0097
:100D440013449B00154A1A447B6804331946104621
:100D5400FFF781FEFFF712FE0D4B1B68002B0ED030
:100D64000A4B1B68DA6A7B68DB6A9A4207D20C4B2F
:100D74004FF080521A60BFF34F8FBFF36F8F00BFE5
:100D84000837BD4680BD00BFD480002028800020E5
:100D9400E0800020F0800020DC8000202C800020F7
:100DA40004ED00E080B584B000AF78600023FB6000
:100DB4007B68002B08D000F055F80021786800F01B
:100DC40049FA00F05DF8F860FB68002B07D1064B88
:100DD4004FF080521A60BFF34F8FBFF36F8F00BF85
:100DE4001037BD4680BD00BF04ED00E080B584B07F
:100DF40002AF154B01930023009300238022134973
:100E04001348FFF7AFFE78607B68012B15D14FF0D4
:100E1400500383F31188BFF36F8FBFF34F8F3B6091
:100E240000BF0C4B4FF0FF321A600B4B01221A60CB
:100E34000A4B00221A60FFF75DFD094B1B6800BFD7
:100E44000837BD4680BD00BFF8800020A01300080D
:100E540075110008F4800020E0800020D880002074
:100E64000400002080B400AF044B1B680133034A24
:100E7400136000BFBD465DF8047B7047FC80002012
:100E840080B584B000AF0023FB600023BB60FFF794
:100E94005BFD394B1B68013B374A1360364B1B68BB
:100EA400002B62D1354B1B68002B5ED02FE0344BF6
:100EB400DB68DB68FB60FB6818331846FFF728FE25
:100EC400FB6804331846FFF723FEFB68DA6A2D4BF0
:100ED4001B689A4203D9FB68DB6A2A4A1360FB68E1
:100EE400DA6A13469B0013449B00274A1A44FB68A2
:100EF400043319461046FFF7AEFDFB68DA6A234B4C
:100F04001B68DB6A9A4202D3214B01221A601C4BF4
:100F14001B68002BCBD1FB68002B01D000F07EF9BD
:100F24001C4B1B687B607B68002B10D000F036F8EC
:100F34000346002B02D0164B01221A607B68013B4A
:100F44007B607B68002BF1D1124B00221A60104B9E
:100F54001B68002B09D00123BB600F4B4FF080525C
:100F64001A60BFF34F8FBFF36F8FFFF707FDBB68A6
:100F740018461037BD4680BDFC800020D480002078
:100F8400C0800020DC8000202C80002028800020ED
:100F9400E8800020E480002004ED00E080B586B005
:100FA40000AF00237B613F4B1B68002B70D13E4B8D
:100FB4001B6801333B613C4A3B6913603B69002B6E
:100FC40010D13A4B1B68FB60394B1B68374A1360DE
:100FD400374AFB681360374B1B680133354A13608B
:100FE40000F01CF9344B1B683A699A4249D32F4BE1
:100FF4001B681B68002B04D12F4B4FF0FF321A6083
:101004003FE02A4B1B68DB68DB68BB60BB685B683E
:101014007B603A697B689A4203D2274A7B681360F3
:101024002FE0BB6804331846FFF772FDBB689B6A68
:10103400002B04D0BB6818331846FFF769FDBB6862
:10104400DA6A1E4B1B689A4203D9BB68DB6A1B4AE7
:101054001360BB68DA6A13469B0013449B00184A6A
:101064001A44BB68043319461046FFF7F4FCBB6806
:10107400DA6A144B1B68DB6A9A42B8D301237B619A
:10108400B5E7114B1B68002B07D001237B6104E0FB
:101094000E4B1B6801330D4A13607B6918461837E1
:1010A400BD4680BDFC800020D8800020B880002090
:1010B400BC800020EC800020F4800020DC80002034
:1010C4002C80002028800020E8800020E48000207C
:1010D40080B483B000AF214B1B68002B03D0204B9E
:1010E40001221A6033E01E4B00221A601D4B1B685C
:1010F4007B6002E07B68013B7B601B497A68134696
:101104009B0013449B000B441B68002BF2D07A68AD
:1011140013469B0013449B00134A13443B603B68F3
:101124005B685A683B685A603B685A683B68083396
:101134009A4204D13B685B685A683B685A603B68D2
:101144005B68DB68094A1360064A7B68136000BF6A
:101154000C37BD465DF8047B704700BFFC8000205F
:10116400E8800020DC8000202C80002028800020E3
:1011740080B582B000AF786000F048F8064B1B6879
:10118400012BF9D9054B4FF080521A60BFF34F8FF2
:10119400BFF36F8FF0E700BF2C80002004ED00E068
:1011A40080B582B000AF00237B600CE07A68134600
:1011B4009B0013449B000F4A13441846FFF71EFC80
:1011C4007B6801337B607B68042BEFD90A48FFF707
:1011D40015FC0A48FFF712FC0948FFF70FFC094BFE
:1011E400054A1A60084B054A1A6000BF0837BD4615
:1011F40080BD00BF2C80002090800020A4800020AF
:10120400C0800020B8800020BC80002080B400AFE3
:1012140000BFBD465DF8047B7047000080B400AF9A
:101224000A4B1B681B68002B04D1094B4FF0FF329B
:101234001A6005E0054B1B68DB681B68044A1360F1
:1012440000BFBD465DF8047B704700BFB880002036
:10125400F480002080B584B000AF786039601A4B08
:101264001B68FB60194B1B6804331846FFF750FCDE
:10127400FA687B681344BB60144B1B68BA685A60F5
:10128400BA68FB689A4209D2114B1A680F4B1B6863
:10129400043319461046FFF702FC10E00D4B1A68A0
:1012A4000A4B1B68043319461046FFF7F8FB0A4B38
:1012B4001B68BA689A4202D2074ABB68136000BF2F
:1012C4001037BD4680BD00BFD88000202880002094
:1012D400BC800020B8800020F4800020F0B4860791
:1012E40046D0541E002A3CD0CAB2034601E0013C59
:1012F40037D303F8012B9D07F9D1032C2AD9CDB29A
:1013040045EA05250F2C45EA054534D9A4F1100218
:1013140022F00F0C03F120071609674403F11002B1
:1013240042E9045542E902551032BA42F8D1721C1E
:1013340014F00C0F03EB021204F00F0613D0331F4A
:1013440023F003030433134442F8045B9342FBD1B8
:1013540006F003042CB1CAB21C4403F8012B9C42CE
:10136400FBD1F0BC704734461346002CF3D1F8E7A8
:0C13740014460346C1E71A462646E0E78F
:04138000F8B500BFFD
:04138400F8B500BFF9
:101388004C45445F626C696E6B5F31004C45445F4D
:10139800626C696E6B5F320049444C450000000086
:0813A800AAAAAAAA0400000091
:04000005080004915A
:00000001FF
